:020000040800F2
:10000000403800209D010008050E00087504000816
:10001000010E0008950300082B1C000800000000DA
:100020000000000000000000000000008D1000082B
:100030009903000800000000950E00088B150008C9
:10004000B7010008B7010008B7010008B7010008B0
:10005000B7010008B7010008B7010008B7010008A0
:10006000B7010008B7010008B7010008B701000890
:10007000B7010008B7010008B7010008B701000880
:10008000B7010008B7010008B7010008B701000870
:10009000B7010008B7010008B7010008B701000860
:1000A000B7010008B7010008B7010008B701000850
:1000B000B7010008B7010008B7010008B701000840
:1000C000B7010008B7010008B7010008B701000830
:1000D000B7010008F5150008B7010008B7010008CE
:1000E000B7010008B7010008B7010008B701000810
:1000F000B7010008B7010008B7010008B701000800
:10010000B7010008B7010008B7010008B7010008EF
:10011000B7010008B7010008B7010008B7010008DF
:10012000B7010008B7010008B7010008B7010008CF
:10013000B7010008B7010008B7010008B7010008BF
:10014000B7010008B7010008B7010008B7010008AF
:10015000B7010008B7010008B7010008B70100089F
:10016000B7010008B7010008B7010008B70100088F
:10017000B7010008B7010008B7010008B70100087F
:10018000B7010008B7010008DFF80CD000F08CF8C8
:1001900000480047C1230008403800200648804737
:1001A00006480047FEE7FEE7FEE7FEE7FEE7FEE75C
:1001B000FEE7FEE7FEE7FEE78D150008890100086F
:1001C0002DE9F0410024061B254671F1000605DAF1
:1001D00001240027D0EB070067EB0101161E73F125
:1001E000000605DA0027D2EB0702012567EB0303BF
:1001F00000F029F886460E4617469C46AC4204D0CD
:100200000025D0EB050E65EB010624B10020D2EBF2
:10021000000760EB030C704631463A466346BDE882
:10022000F08140EA01039B0703D009E008C9121FCF
:1002300008C0042AFAD203E011F8013B00F8013BA0
:10024000521EF9D270472DE9F05F05460020924614
:100250009B4688460646814640241BE02846414688
:100260004746224600F041F853465A46C01A91418B
:1002700010D311461846224600F028F82D1A67EBD5
:1002800001084F4622460120002100F01FF817EB1D
:1002900000094E41201EA4F10104DFDC484631462E
:1002A0002A464346BDE8F09F064C074D06E0E0684D
:1002B00040F0010394E8070098471034AC42F6D3AD
:1002C000FFF766FF98260008B8260008202A04DBFE
:1002D000203A00FA02F1002070479140C2F1200359
:1002E00020FA03F3194390407047202A04DB203A98
:1002F00021FA02F00021704721FA02F3D040C2F146
:100300002002914008431946704700210180418036
:100310008180704701460E48808808B901207047E7
:100320000B480288801D805C0870094A1288501CA6
:10033000C21700EB92529212A0EB8222044B1A8059
:1003400018468088401E1A4690800020E7E700008B
:100350009C00002001460E488088B0F5806F01DBCC
:10036000012070470A484288801D8154821F5288AC
:10037000501CC21700EB92529212A0EB8222044B47
:100380005A8018468088401C1A4690800020E8E772
:100390009C00002000BFFEE77047F0B50A46002130
:1003A0000023002400BF3DE0012505FA01F3156894
:1003B00005EA03049C4234D105684F000326BE4081
:1003C000B543056015794E00B540066835430560B4
:1003D0001579012D02D01579022D16D185684F00AF
:1003E0000326BE40B543856055794E00B54086680A
:1003F00035438560456801268E40B54345604568B4
:1004000096798E40B6B235434560C5684F000326E5
:10041000BE40B543C560D5794E00B540C66835438A
:10042000C560491C1029BFD3F0BDF0B500230024DE
:100430004D07ED0E02FA05F3CE1000F1200555F838
:1004400026504E07F70E0F26BE40B543CF1000F1E1
:10045000200646F82750CE1000F1200555F826500A
:1004600045EA0304CE1000F1200545F82640F0BD12
:100470000183704700BFFEE71CB50121202000F07A
:100480000BFD4FF4C060009001208DF804000020A7
:100490008DF8060003208DF8050001208DF8070077
:1004A00069460448FFF779FF4FF4C0610148FFF740
:1004B000DFFF1CBD0014024070B50346002400207D
:1004C00010E00E5C451C4D5D46EA0526851C4D5D21
:1004D00046EA0546C51C4D5D46EA056543F82450CD
:1004E000641C001D9042ECD370BD70B503461446E9
:1004F0000022002015E011F822501D5431F822503E
:10050000C5F30726451C5E5551F82250C5F3074632
:10051000851C5E5551F822502D0EC61C9D55521C4F
:10052000001DA042E7D370BD2DE9FC4104460E46F4
:10053000002500272088C0F3C505382D02D2C5F15B
:10054000380001E0C5F178000746082221466846D8
:10055000FFF7CBFF3A460849204600F00BFC082283
:100560006946204600F006FC102204F108013046DE
:10057000FFF7BBFFBDE8FC810A00002000210160FD
:10058000416005498160054AC260CA430261034A6D
:10059000D2434261704700000123456789ABCDEF2C
:1005A0002DE9F043C0B080468946D8F80040D8F81D
:1005B0000450D8F80860D8F80C70402249466846C4
:1005C000FFF77AFF05EA060027EA050108430099CC
:1005D0000844FE4908440444E00140EA54642C44C1
:1005E00004EA050026EA0401084301990844F84991
:1005F00008440744380340EA1757274407EA040031
:1006000025EA0701084302990844F24908440644D0
:10061000700440EAD6363E4406EA070024EA0601A2
:10062000084303990844EC4908440544A80540EAF6
:100630009525354405EA060027EA05010843049993
:100640000844E64908440444E00140EA54642C4468
:1006500004EA050026EA0401084305990844E04934
:1006600008440744380340EA1757274407EA0400C0
:1006700025EA0701084306990844DA490844064474
:10068000700440EAD6363E4406EA070024EA060132
:10069000084307990844D44908440544A80540EA9A
:1006A0009525354405EA060027EA0501084308991F
:1006B0000844CE4908440444E00140EA54642C4410
:1006C00004EA050026EA0401084309990844C849D8
:1006D00008440744380340EA1757274407EA040050
:1006E00025EA070108430A990844A0F524404F3839
:1006F0000644700440EAD6363E4406EA070024EA7F
:10070000060108430B990844BA4908440544A80562
:1007100040EA9525354405EA060027EA0501084325
:100720000C990844B44908440444E00140EA546484
:100730002C4404EA050026EA040108430D99084404
:10074000AE4908440744380340EA1757274407EAEC
:10075000040025EA070108430E990844A849084403
:100760000644700440EAD6363E4406EA070024EA0E
:10077000060108430F990844A24908440544A80506
:1007800040EA9525354405EA070026EA07010843B3
:10079000019908449C4908440444600140EAD46437
:1007A0002C4404EA060025EA060108430699084499
:1007B000964908440744780240EAD757274407EA95
:1007C000050024EA050108430B99084490490844B0
:1007D0000644B00340EA96463E4406EA040027EA8F
:1007E00004010843009908448A490844054428053F
:1007F00040EA1535354405EA070026EA07010843B3
:1008000005990844844908440444600140EAD464DA
:100810002C4404EA060025EA060108430A99084424
:100820007E4908440744780240EAD757274407EA3C
:10083000050024EA050108430F9908447849084453
:100840000644B00340EA96463E4406EA040027EA1E
:1008500004010843049908447249084405442805E2
:1008600040EA1535354405EA070026EA0701084342
:10087000099908446C4908440444600140EAD4647E
:100880002C4404EA060025EA060108430E990844B0
:10089000664908440744780240EAD757274407EAE4
:1008A000050024EA05010843039908446049084407
:1008B0000644B00340EA96463E4406EA040027EAAE
:1008C00004010843089908445A4908440544280586
:1008D00040EA1535354405EA070026EA07010843D2
:1008E0000D990844544908440444600140EAD46422
:1008F0002C4404EA060025EA06010843029908444C
:100900004E4908440744780240EAD757274407EA8B
:10091000050024EA050108430799084448490844AA
:100920000644B00340EA96463E4406EA040027EA3D
:10093000040108430C990844424908440544280529
:1009400040EA1535354485EA0600784005990844A3
:100950003D4908440444200140EA14742C4484EACC
:100960000500704008990844384908440744F802D3
:1009700040EA5757274487EA040068400B99084427
:10098000334908440644300440EA16463E4486EAA9
:10099000070060400E9908442E4908440544E805C4
:1009A00040EA5525354485EA060078400199084417
:1009B000294908440444200140EA14742C4484EA80
:1009C0000500704004990844244949E078A46AD796
:1009D00056B7C7E8DB702024EECEBDC1AF0F7CF563
:1009E0002AC68747134630A8019546FDD8988069E6
:1009F000AFF7448BBED75C892211906B937198FD41
:100A00008E4379A62108B44962251EF640B340C042
:100A1000515A5E26AAC7B6E95D102FD65314440278
:100A200081E6A1D8C8FBD3E7E6CDE121D60737C3DD
:100A3000870DD5F4ED145A4505E9E3A9F8A3EFFCB9
:100A4000D9026F678A4C2A8D4239FAFF81F6718785
:100A500022619D6D0C38E5FD44EABEA4A9CFDE4BB2
:100A600008440744F80240EA5757274487EA04003D
:100A7000684007990844A54908440644300440EA00
:100A800016463E4486EA070060400A990844A04999
:100A900008440544E80540EA5525354485EA060042
:100AA00078400D9908449B4908440444200140EAD9
:100AB00014742C4484EA0500704000990844964957
:100AC00008440744F80240EA5757274487EA0400DD
:100AD000684003990844914908440644300440EAB8
:100AE00016463E4486EA07006040069908448C4951
:100AF00008440544E80540EA5525354485EA0600E2
:100B0000784009990844874908440444200140EA90
:100B100014742C4484EA050070400C9908448249FE
:100B200008440744F80240EA5757274487EA04007C
:100B300068400F9908447D4908440644300440EA5F
:100B400016463E4486EA0700604002990844784908
:100B500008440544E80540EA5525354465EA0700A0
:100B6000704000990844734908440444A00140EAD5
:100B700094642C4464EA06006840079908446E496E
:100B800008440744B80240EA9757274467EA05003B
:100B900060400E990844694908440644F00340EA5D
:100BA00056463E4466EA0400784005990844644984
:100BB00008440544680540EAD525354465EA070040
:100BC00070400C9908445F4908440444A00140EA7D
:100BD00094642C4464EA06006840039908445A4926
:100BE00008440744B80240EA9757274467EA0500DB
:100BF00060400A990844554908440644F00340EA15
:100C000056463E4466EA040078400199084450493B
:100C100008440544680540EAD525354465EA0700DF
:100C20007040089908444B4908440444A00140EA34
:100C300094642C4464EA060068400F9908444649CD
:100C400008440744B80240EA9757274467EA05007A
:100C5000604006990844414908440644F00340EACC
:100C600056463E4466EA040078400D9908443C49E3
:100C700008440544680540EAD525354465EA07007F
:100C8000704004990844374908440444A00140EAEC
:100C900094642C4464EA060068400B990844324985
:100CA00008440744B80240EA9757274467EA05001A
:100CB0006040029908442D4908440644F00340EA84
:100CC00056463E4466EA040078400999084428499B
:100CD00008440544680540EAD5253544D8F80000A5
:100CE0002044C8F80000D8F804002844C8F80400DC
:100CF000D8F808003044C8F80800D8F80C00384488
:100D0000C8F80C0040B0BDE8F0830000604BBBF6B3
:100D100070BCBFBEC67E9B28FA27A1EA8530EFD4FF
:100D2000051D880439D0D4D9E599DBE6F87CA21FEB
:100D30006556ACC4442229F497FF2A43A72394ABF9
:100D400039A093FCC3595B6592CC0C8F7DF4EFFF07
:100D5000D15D84854F7EA86FE0E62CFE144301A38D
:100D6000A111084E827E53F735F23ABDBBD2D72A85
:100D700091D386EB2DE9F04704460F461546002631
:100D8000B046B1462088C0F3C508C8F140092068C4
:100D900000EBC50020602068B0EBC50F02D2606890
:100DA000401C6060606800EB557060604D451CD36E
:100DB00004F1180101EB08004A463946FFF731FA01
:100DC00004F1180104F10800FFF7EAFB4E4605E0C4
:100DD000B91904F10800FFF7E3FB403606F14000C3
:100DE000A842F5D94FF0000800E00026AA1BB91967
:100DF00004F1180303EB0800FFF713FABDE8F087CE
:100E000000BFFEE77047000070B5002100230F22ED
:100E1000C4781CB3174C246804F4E064C4F5E0649F
:100E2000C4F30721C1F10404E3B20A4144789C40B1
:100E3000E1B28478144021430C07210E0E4C057852
:100E40006155047804F01F050124AC4005786D114C
:100E5000AD0005F1E025C5F8004109E0047804F093
:100E60001F050124AC40054D0678761145F8264053
:100E700070BD00000CED00E000E400E080E100E067
:100E800002490143024A1160704700000000FA0560
:100E90000CED00E07047000029B1064A12680243D9
:100EA000044B1A6004E0034A12688243014B1A6043
:100EB000704700003038024029B1064A12680243E8
:100EC000044B1A6004E0034A12688243014B1A6023
:100ED000704700003438024029B1064A12680243C4
:100EE000044B1A6004E0034A12688243014B1A6003
:100EF0007047000044380240F0B500210022002471
:100F0000022500260223324F3F6807F00C0121B171
:100F1000042905D0082937D105E02E4F076036E0B7
:100F20002D4F076033E02A4F3F1F3F68C7F38056BD
:100F3000274F3F1F3F6807F03F036EB1264FB7FBB7
:100F4000F3F7DFF88CC0ACF1040CDCF800C0CCF394
:100F5000881C07FB0CF40CE01E4FB7FBF3F7DFF81F
:100F600070C0ACF1040CDCF800C0CCF3881C07FBAB
:100F70000CF4174F3F1F3F68C7F301477F1C7D00EC
:100F8000B4FBF5F7076002E0124F076000BF00BF37
:100F90000F4F3F6807F0F0010909104F7A5C0768AE
:100FA000D74047600A4F3F6807F4E051890A0B4F6A
:100FB0007A5C4768D7408760054F3F6807F4604117
:100FC000490B064F7A5C4768D740C760F0BD000008
:100FD000083802400024F40000127A00810000204A
:100FE00030B10749096841F00401054A116005E084
:100FF0000349096821F00401014A116070470000AB
:101000000008065001460020034A12680A400AB14F
:10101000012000E0002070470408065001480068E5
:10102000704700000808065010B500BF0120FFF708
:10103000E9FF0028FAD0FFF7F1FF10BD70B50446B4
:101040000D46FFF7F1FF291B491CB0FBF1F201FB34
:101050001200204470BD10B501214020FFF72CFF85
:101060000120FFF7BDFF0AE0601C84B2642001F09C
:10107000D5F842F21070844201DB012010BD01203E
:10108000FFF7C0FF0028EFD00020F7E7704700000F
:101090000CB50020019000903448006840F4803086
:1010A0003249086000BF3148006800F40030009009
:1010B0000198401C0190009818B90198B0F5A04F14
:1010C000F1D12A48006800F4003010B101200090EE
:1010D00001E0002000900098012846D123484030CC
:1010E000006840F080502149403108602048006885
:1010F00040F440401E4908601C48083000681B4905
:10110000083108600846006840F40040086008465E
:10111000006840F4A05008601648091F0860081FC6
:10112000006840F08070091F086000BF0F48006829
:1011300000F000700028F9D040F205700E490860F8
:101140000A480830006820F00300084908310860A8
:101150000846006840F00200086000BF03480830FD
:10116000006800F00C000828F8D10CBD00380240DF
:101170000070004008544007003C02402DE9FF5F2A
:10118000ADF5167D16461F464FF48072BA4956A833
:10119000FFF747F8B9480D90B9480C90B9480B9043
:1011A000B9480A90B9480990B9480890B9480790D9
:1011B000B94806904022002330463946FFF700F830
:1011C0003821511A73F1000308DB40220023304616
:1011D0003946FEF7F5FFD2F1800007E040220023F8
:1011E00030463946FEF7ECFFD2F1400010EB060A1C
:1011F000504601F045F9054600240FE09699095D37
:101200002046E21704EB92729210A4EB8203E21CD8
:101210004FF0020C0CFB1322A954641CE017A11B15
:10122000B841EBDB80212046E21704EB927292106A
:10123000A4EB8203E21C4FF0020C0CFB1322A95416
:10124000641C0EE000212046E21704EB927292101B
:10125000A4EB8203E21C4FF0020C0CFB1322A954F6
:10126000641C5445EEDBF00005EB0A0141F8040C68
:10127000700F40EAC70005EB0A0141F8080C05EBC6
:101280000A005590D9E0002405E055F8240015A97E
:1012900041F82400641C102CF7DB10244AE0A01E47
:1012A00015A951F8201015AA52F82000401461F336
:1012B000DF30A11E52F8212015AB53F82110C914BC
:1012C00062F35F314840A11E15AA52F82110734AFB
:1012D00002EAA1214840E11F15AA52F82110014459
:1012E000A4F10F0012F8202053F82000C01162F37F
:1012F0005F60A4F10F0253F822300DF1540C5CF83A
:101300002220921463F39F325040A4F10F0215ABD8
:1013100053F822206FF0604303EAE2025040014498
:10132000A4F1100015AA52F82000084415A941F8AC
:101330002400641C402CB2DBDDF83480DDF830B0D2
:101340000B9812900A981190DDF82490089810904C
:1013500007980F9006980E9000244EE04FEAA910CF
:1013600069F39F604FEAE92169F35F5148404FEA12
:10137000696169F3DF1148400E994218109909EA32
:1013800001000F9921EA09014840104456A951F87B
:101390002410084415A951F82410084414904FEA69
:1013A000A80068F39F704FEA683168F3DF41484056
:1013B0004FEAA85168F39F21414008EA0B00129AB6
:1013C00008EA02025040129A0BEA0202504001441D
:1013D00013910F980E9010980F90CDF8409011999E
:1013E000149801EB000912981190CDF848B0C3464B
:1013F000DDE9131000EB0108641C402CAEDB0D98F6
:1014000040440D900C9858440C9012990B98084445
:101410000B9011990A9808440A9009984844099039
:1014200010990898084408900F9907980844079065
:101430000E99069808440690403555988542FFF469
:1014400022AFA5EB0A0000F033FF06A80BC8099AEB
:10145000CDE90223CDE90410DDE90A10CDE9000150
:101460000FA1DDE90C32A49800F0F2FBA4980DF571
:101470001A7DBDE8F09F00009825000867E6096A1C
:1014800085AE67BB72F36E3C3AF54FA57F520E51A5
:101490008C68059BABD9831F19CDE05BFFFF3F0034
:1014A00025303858253038582530385825303858A8
:1014B0002530385825303858253038582530385898
:1014C00000000000F0B504460B4620460026002729
:1014D000002127E00578392D08DD0578462D02DD4D
:1014E0000578662D02DC0578373D01E00578303D52
:1014F000EEB2451C28462D78392D08DD0578462D9D
:1015000002DD0578662D02DC0578373D01E00578BF
:10151000303DEFB206F00F0C3D466CF31F155D54E5
:10152000401C491C02EBD27CB1EB6C0FD2DB1546A0
:1015300002EBD57C4FEA6C0CA2EB4C0CBCF1000F1B
:101540000ED00578392D08DD0578462D02DD0578A9
:10155000662D02DC0578373D01E00578303D5D54AD
:10156000F0BD042808D14FF0E021096941F00401E1
:101570004FF0E022116107E04FF0E021096921F00E
:1015800004014FF0E02211617047704710B5154813
:10159000006840F47000134908601348006840F088
:1015A00001001149086000200F49083108600E4809
:1015B00000680E4908400C4908600D48091D086084
:1015C000081F006820F48020091F086000200649D9
:1015D0000C310860FFF75CFD4FF000600149803975
:1015E000086010BD88ED00E000380240FFFFF6FE05
:1015F0001030002438B5202440F22551F74800F07F
:1016000056FA002876D040F22551F44800F027FA27
:10161000F24800F005FBC1B2F148F24A1278815459
:10162000F0480078401CEF490870084600780870C0
:10163000ED48007828BB0020EC490870EC49088090
:10164000EC490880EC490880EC490880EC490880A6
:10165000EC490880EC490880EC490870EC490870B6
:10166000EC490870DF480078401EDD49085C5A28C4
:1016700003D10120DC49087051E10020DA490870EB
:101680004DE1D9480078012818D1D6480078401E8D
:10169000D349095CD64802880088401CD44B188086
:1016A000DD48815418460088082803D10220CE491D
:1016B000087034E10120CC49087030E1CA48007854
:1016C000022833D1C7480078401EC549095CC94883
:1016D00002880088401CC74B1880D04881541846A7
:1016E000008802281ED10320BF4908700020CC4981
:1016F000088012E071E1C948C9490988405C303866
:10170000C449097801EB810100EB4100C14908702F
:10171000C3480088401CC2490880C148008802288C
:10172000E9DBFCE00220B0490870F8E0AE48007840
:10173000032839D1AB480078401EA9490A5CAE485D
:1017400001880088401CAC4B1880B64842541846AB
:101750000088022824D10420A34908700020B04941
:10176000088011E0AF48AE490988405C3038A7498D
:10177000097801EB810100EB4100A4490870A848F9
:101780000088401CA6490880A54800880228E9DB9B
:101790009E48007801288CD0002093490870BEE054
:1017A000032091490870BAE08F480078042839D1A5
:1017B0008C480078401E8A49095C9048028800885D
:1017C000401C8E4B18809848815418460088022887
:1017D00024D105208449087000209149088011E037
:1017E00091488F490988405C30388949097801EB74
:1017F000810100EB41008649087089480088401C3F
:1018000087490880864800880228E9DB80480078FC
:10181000022886D000207449087080E004207249B4
:1018200008707CE070480078052832D16D48007857
:10183000401E6B49095C734802880088401C714B4C
:1018400018807A4881541846008804281DD1062043
:101850006549087000207249088011E0734870499A
:101860000988405C30386849098801EB810100EB48
:101870004100654908806A480088401C6849088022
:10188000674800880428E9DB49E0052056490870CC
:1018900045E055480078062803D0534800780728CB
:1018A0001AD150480078401E4D49095C54480288BE
:1018B0000088401C524B18805D48815418460088AF
:1018C00051490988884203D108204749087026E019
:1018D00007204549087022E04348007808280AD1CB
:1018E00040480078401E3E49085C52490870092073
:1018F0003D49087013E03C48007809280FD1394869
:101900000078401E3649085C592803D10120374928
:10191000087004E00020344908703249087008213A
:101920002E4800F0B7F8012806D108212B4800F016
:101930008DF82A4800F074F92C48007801284CD121
:101940003448007848BB00203B49087012E00BE0A7
:101950006846FEF7DFFC9DF8001038A000F068F93B
:1019600014B938A000F064F9201EA4F10101CCB232
:10197000EED12024344880882028E8DA3248808854
:10198000202802DA2FA000F053F900BF802113486D
:1019900000F080F80028F9D01AE01E4800780128ED
:1019A00002D12549087013E01A480078022803D1B3
:1019B0000020214908700BE016480078032807D161
:1019C00002E06846FEF7A6FC1F4880880128F8DA86
:1019D0000020054908700349087038BD0010014017
:1019E0002E0700205900002056000020580000203B
:1019F0007200002074000020760000207800002093
:101A00007C0000207A000020700000206700002089
:101A10006A000020640000205A00002062000020BC
:101A20007E00002065000020680000206B00002080
:101A30002E0B002057000020800000202530325857
:101A4000000000000A0000009C00002001F4007269
:101A5000B2F5007F00D100BFCA430280704710B5C5
:101A60000022002340F66A14A14200D100BF0A12EE
:101A700001249440A3B2DC43048010BD21B18289CB
:101A800042F40052828104E082894DF6FF731A40CD
:101A90008281704702460020B1F5007F00D100BF6F
:101AA00013880B400BB1012000E00020704770B597
:101AB0000246002400230025002040F66A16B142A9
:101AC00000D100BFC1F3421501F01F03012606FA41
:101AD00003F3012D02D19689334006E0022D02D195
:101AE000168A334001E0968A33400C12012606FA2A
:101AF00004F41688344013B10CB1012000E000203A
:101B000070BDF0B50346002400260025002040F6F5
:101B10006A17B94200D100BF1846C1F3421401F060
:101B20001F06012707FA06F5012C01D10C3004E04D
:101B3000022C01D1103000E014301AB107682F4395
:101B4000076002E00768AF430760F0BD2DE9FF477B
:101B500005460E460024A14600BFA046B08900B14C
:101B600000BF2C8A24F44054F08804432C82AC89B2
:101B700041F20C608443B08831890843718908437D
:101B80000443AC81AC8A24F44074B0890443AC8231
:101B90006846FFF7B1F92048854202D01F488542C8
:101BA00002D1DDF80C9001E0DDF80890A88900F47E
:101BB000004040B109EBC90000EB09103168490051
:101BC000B0FBF1F707E009EBC90000EB0910316841
:101BD0008900B0FBF1F76420B7FBF0F004012009A5
:101BE000642101FB1078A88900F4004040B1322044
:101BF00000EBC800B0FBF1F000F00700044308E080
:101C0000322000EB08106421B0FBF1F000F00F006F
:101C100004432C81BDE8FF870010014000140140FF
:101C200001468888C0F30800704700BFFEE7000047
:101C30000FB4054B10B503A9044A029800F02CF824
:101C400010BC5DF814FB0000952200085000002035
:101C50000FB4084B10B504A902AA039800F01CF8B1
:101C6000044602A9002000F048FA204610BC5DF8A6
:101C700014FB0000FB20000802E008C8121F08C186
:101C8000002AFAD170477047002001E001C1121FFD
:101C9000002AFBD1704700002DE9FF4F8DB00F46A1
:101CA0000546002606E025280BD0DDE90F129047F7
:101CB0006D1C761C28780028F5D111B03046BDE89F
:101CC000F08F0024A246A1460122EC4900E0044323
:101CD00015F8013F203B02FA03F00842F7D12878BB
:101CE0002A2810D06FF02F022878A0F1300109299E
:101CF00014D80AEB8A0102EB410144F0020400EB24
:101D0000010A6D1CF0E701CF5FEA000A03D544F435
:101D10000054CAF1000A44F002046D1C28782E28F1
:101D200017D115F8010F44F004042A280ED06FF0E3
:101D30002F022878A0F1300109290AD809EB89017E
:101D400002EB410100EB01096D1CF2E757F8049B1F
:101D50006D1C28786C280FD006DC4C2817D068281A
:101D60000DD06A2814D104E0742810D07A280FD13D
:101D70000DE044F400140AE044F4801401E044F45B
:101D800040146978814202D104F580146D1C6D1CE9
:101D90002A786E2A1FD00CDC632A31D004DC002A9A
:101DA0008BD0582A11D1A3E0642A68D0692A0CD1BB
:101DB00065E0732A2ED004DC6F2A73D0702A04D118
:101DC0009BE0752A6FD0782A6ED01046DDE90F129D
:101DD0009047761C50E1C4F30250022806D0032835
:101DE00009D0042801CF09D0066045E101CFF117E1
:101DF000C0E9006140E101CF06803DE106703BE1B2
:101E000017F8040B8DF8000000208DF80100EB4658
:101E1000012003E057F804BB4FF0FF3061074FF09B
:101E2000000102D40DE008F10101884649450FDAAE
:101E30008045F8DB1BF808100029F4D108E008F110
:101E4000010188468142FADB1BF808100029F6D10F
:101E5000DDE90F23AAEB08008146214600F036F9A0
:101E6000304400EB080604E0DDE90F121BF8010B1B
:101E70009047B8F10108F7D221464846F7E00A2119
:101E8000C4F302534FF0000B0891022B04D001CF92
:101E9000C117032B09D00AE0FF1D27F00707F7E859
:101EA000020108E032E01FE020E000B2C117042B7D
:101EB00001D140B2C117031E71F1000307DA4FF0E0
:101EC000000CD0EB0C006CEB01012D2302E023058C
:101ED00004D52B238DF82430012303E0E30701D040
:101EE0002023F7E7984658E00A2110E010210EE081
:101EF00010204FF0000B08900CE010214FF0000B69
:101F000044F004044FF00809089103E008214FF061
:101F1000000B0891C4F30253022B04D001CF00211F
:101F2000032B06D006E0FF1D27F00707F7E80201A4
:101F300003E080B2042B00D1C0B24FF000082307A9
:101F40002BD5702A07D0DDF820C08CF0100C5CEA8D
:101F50000B0C05D00EE040238DF82430012308E05F
:101F600050EA010306D030238DF824308DF8252067
:101F700002239846DDF820C08CF0080C5CEA0B0CBC
:101F80000BD150EA010301D1630706D530238DF848
:101F900024304FF00108A9F10109582A04D038A2D1
:101FA0000B9208AA0A920BE03AA2F9E75B46089A5C
:101FB000FEF749F90B9B9B5C0A9A521E0A9213701A
:101FC00050EA0102F2D10A98ADEB000000F1200BBB
:101FD000600702D524F4803401E04FF00109D945AF
:101FE00002DDA9EB0B0000E0002000EB0B014144F7
:101FF0000890AAEB010AE00306D4DDE90F2321468D
:10200000504600F063F806444FF0000908E009A9C3
:1020100011F80900DDE90F12904709F10109761C5A
:10202000C145F4DBE0030CD5DDE90F232146504622
:1020300000F04CF8064404E0DDE90F123020904730
:10204000761C0899481E08900029F5DC08E00A98DB
:102050000A990078491C0A91DDE90F129047761C15
:10206000BBF10001ABF1010BF1DC21465046DDE98B
:102070000F2300F019F806446D1C1BE60928010027
:1020800030313233343536373839616263646566EE
:1020900000000000303132333435363738394142B0
:1020A00043444546000000002DE9F0410446002568
:1020B0001E461746880404D405E039462020B04760
:1020C0006D1C641EF9D52846BDE8F0812DE9F0416C
:1020D000044600251E469046C80301D5302700E07F
:1020E0002027880404D505E041463846B0476D1CDA
:1020F000641EF9D52846BDE8F0810A68531C0B60C0
:1021000010707047F0B599B006460D46174601A904
:10211000304600F052F815A9284600F036F811A90B
:1021200015A800F032F800240BE015A8005D09A9FD
:10213000085511A8015D09AA04F110001154601C92
:10214000C4B2102CF1DB002407E009A8005D01A94E
:10215000095D48403855601CC4B2202CF5DB0024D2
:102160000FE009A8005D305501A8015D04F12000D1
:10217000315401A8005D285509A8005D2855601C50
:10218000C4B2202CEDDB19B0F0BD70B596B004469A
:102190000E4600256846FEF7F1F900E06D1C605D13
:1021A0000028FBD12A4621466846FEF7E3FD31466A
:1021B0006846FEF7B9F916B070BD30B591B0044667
:1021C0000D4601A84022002300902046FEF7D6FFCE
:1021D0004022294601A8FFF775F911B030BD000073
:1021E00010B504466FF00400FFF7BBF9E11704EBEC
:1021F0005171C1F3C701074A11701046007800EB16
:102200004001C1EBC0104FF6FF7101EAC000024966
:10221000088010BD4A0000204C0000200146114AF1
:1022200012784A434FF0E0235A6100229A611A461D
:10223000126942F001021A6100BF4FF0E0221069FA
:1022400000F001021AB100F48032002AF5D04FF0FC
:10225000E022126922F001024FF0E0231A6100220D
:102260009A6170474A00002010B54FF4A060FEF755
:1022700007FEA820FFF7B4FF4FF4E13000F036F975
:10228000FEF7FAF80248FEF740F8FEF7E4FE10BD4C
:102290009C00002000BF054A128802F04002002A7C
:1022A000F9D0C2B2014B9A80704700000010014083
:1022B00010B5002821D0114B0022001F196803E03F
:1022C000814203D80A4649680029F9D152B11368FE
:1022D000841A9C4204D1006818441060104602E041
:1022E000506000E0186039B102680B1A934203D1C4
:1022F0000B681A4402604968416010BD94000020D8
:1023000010B5FFF7B1FF00202749087020E04FF417
:1023100080710020FEF792FE2449234A12788854E7
:102320004FF480710020FEF789FEC1B220481E4A9A
:10233000127881544FF480710020FEF77FFE1D4912
:10234000194A1278885418480078401C16490870B9
:10235000154800784028DADB0020134908701EE099
:10236000124811490978405C12490F4A1278895C79
:10237000484011490C4A127888540E480A49097895
:10238000405C0B49084A1278895C48400B49064A70
:102390001278885404480078401C034908700248A9
:1023A00000784028DCDB10BD000000208205002002
:1023B000C205002042050020C204002002050020C2
:1023C00008B5FFF79DFF244A24492548FFF79AFEE8
:1023D00040E024480078002839D117E00020224945
:1023E00008700AE01C49204A1278885CFDF7B2FFA9
:1023F0001D480078401C1C4908701B4800782028A4
:10240000F0DB154A15491648FFF77CFE174880880F
:10241000B0F5806FE2DB16480068401C1449086084
:102420001449884213D1002400201149086004E0B7
:102430006846FDF76FFF601CC4B20C4880882028F6
:1024400001DD202CF4DB0CA0FFF7F2FB00BF002025
:102450000A490860BDE70000A20400200205002030
:10246000C204002080000020000000209C0000200A
:1024700004000020404B4C000A000000A4824242AD
:10248000F0B50B30154D20F007010024144A0FE081
:1024900003688B420BD38B4205D95E1A43184768F9
:1024A000C3E9006700E04368136002C004E0021D56
:1024B00010680028ECD12046002802D1286808B115
:1024C0000020F0BD064A07481060074A121A22F0A1
:1024D0000702C0E9002401202860D7E79800002007
:1024E00094000020443200204034002010B588B011
:1024F000044601210846FEF7CFFC01211020FEF71B
:10250000EBFC072209212248FDF78FFF07220A2151
:102510001F48FDF78AFF4FF4C060069002208DF837
:102520001C008DF81D0000208DF81E0001208DF884
:102530001F0006A91648FDF730FF02940020ADF8F1
:102540000C00ADF80E00ADF81000ADF814000C2032
:10255000ADF8120002A90F48FFF7F8FA01210D4863
:10256000FFF78CFA012240F225510A48FFF7C9FA19
:1025700025208DF8040003208DF805008DF8060055
:1025800001208DF8070001A8FEF73EFC08B010BD41
:102590000000024000100140982F8A429144377198
:1025A000CFFBC0B5A5DBB5E95BC25639F111F159D6
:1025B000A4823F92D55E1CAB98AA07D8015B831218
:1025C000BE853124C37D0C55745DBE72FEB1DE80C4
:1025D000A706DC9B74F19BC1C1699BE48647BEEFF3
:1025E000C69DC10FCCA10C246F2CE92DAA84744A7E
:1025F000DCA9B05CDA88F97652513E986DC631A8F4
:10260000C82703B0C77F59BFF30BE0C64791A7D5D2
:102610005163CA0667292914850AB72738211B2E5A
:10262000FC6D2C4D130D385354730A65BB0A6A7642
:102630002EC9C281852C7292A1E8BFA24B661AA84E
:10264000708B4BC2A3516CC719E892D1240699D65E
:1026500085350EF470A06A1016C1A419086C371ED7
:102660004C774827B5BCB034B30C1C394AAAD84EB5
:102670004FCA9C5BF36F2E68EE828F746F63A578F0
:102680001478C8840802C78CFAFFBE90EB6C50A483
:10269000F7A3F9BEF27871C6B82600080000002042
:1026A0009C000000781C0008542700089C000020B3
:1026B000A4370000881C0008000000000000000093
:1026C000000080000000000000000000000000008A
:1026D00000000000000000000000000000000000FA
:1026E00000000000000000000000000000000000EA
:1026F00000000000000000000000000000000000DA
:1027000000000000000000000000000000000000C9
:1027100000000000000000000000000000000000B9
:1027200000000000000000000000000000000000A9
:102730000000000000000000000000000001020393
:10274000040102030406070809000000000000005D
:042750000000000085
:040000050800018965
:00000001FF
